{
  "_format": "hh-sol-artifact-1",
  "contractName": "FinAxis",
  "sourceName": "contracts/FinAxis.sol",
  "abi": [
    {
      "inputs": [],
      "stateMutability": "nonpayable",
      "type": "constructor"
    },
    {
      "anonymous": false,
      "inputs": [
        {
          "indexed": true,
          "internalType": "address",
          "name": "owner",
          "type": "address"
        },
        {
          "indexed": true,
          "internalType": "address",
          "name": "spender",
          "type": "address"
        },
        {
          "indexed": false,
          "internalType": "uint256",
          "name": "value",
          "type": "uint256"
        }
      ],
      "name": "Approval",
      "type": "event"
    },
    {
      "anonymous": false,
      "inputs": [
        {
          "indexed": true,
          "internalType": "address",
          "name": "from",
          "type": "address"
        },
        {
          "indexed": true,
          "internalType": "address",
          "name": "to",
          "type": "address"
        },
        {
          "indexed": false,
          "internalType": "uint256",
          "name": "value",
          "type": "uint256"
        }
      ],
      "name": "Transfer",
      "type": "event"
    },
    {
      "inputs": [],
      "name": "_owner",
      "outputs": [
        {
          "internalType": "address",
          "name": "",
          "type": "address"
        }
      ],
      "stateMutability": "view",
      "type": "function"
    },
    {
      "inputs": [
        {
          "internalType": "address",
          "name": "owner",
          "type": "address"
        },
        {
          "internalType": "address",
          "name": "spender",
          "type": "address"
        }
      ],
      "name": "allowance",
      "outputs": [
        {
          "internalType": "uint256",
          "name": "",
          "type": "uint256"
        }
      ],
      "stateMutability": "view",
      "type": "function"
    },
    {
      "inputs": [
        {
          "internalType": "address",
          "name": "spender",
          "type": "address"
        },
        {
          "internalType": "uint256",
          "name": "amount",
          "type": "uint256"
        }
      ],
      "name": "approve",
      "outputs": [
        {
          "internalType": "bool",
          "name": "",
          "type": "bool"
        }
      ],
      "stateMutability": "nonpayable",
      "type": "function"
    },
    {
      "inputs": [
        {
          "internalType": "address",
          "name": "account",
          "type": "address"
        }
      ],
      "name": "balanceOf",
      "outputs": [
        {
          "internalType": "uint256",
          "name": "",
          "type": "uint256"
        }
      ],
      "stateMutability": "view",
      "type": "function"
    },
    {
      "inputs": [
        {
          "internalType": "uint256",
          "name": "amount",
          "type": "uint256"
        }
      ],
      "name": "burn",
      "outputs": [],
      "stateMutability": "nonpayable",
      "type": "function"
    },
    {
      "inputs": [],
      "name": "decimals",
      "outputs": [
        {
          "internalType": "uint8",
          "name": "",
          "type": "uint8"
        }
      ],
      "stateMutability": "view",
      "type": "function"
    },
    {
      "inputs": [
        {
          "internalType": "uint256",
          "name": "amount",
          "type": "uint256"
        }
      ],
      "name": "mint",
      "outputs": [],
      "stateMutability": "nonpayable",
      "type": "function"
    },
    {
      "inputs": [],
      "name": "name",
      "outputs": [
        {
          "internalType": "string",
          "name": "",
          "type": "string"
        }
      ],
      "stateMutability": "view",
      "type": "function"
    },
    {
      "inputs": [],
      "name": "symbol",
      "outputs": [
        {
          "internalType": "string",
          "name": "",
          "type": "string"
        }
      ],
      "stateMutability": "view",
      "type": "function"
    },
    {
      "inputs": [],
      "name": "totalSupply",
      "outputs": [
        {
          "internalType": "uint256",
          "name": "",
          "type": "uint256"
        }
      ],
      "stateMutability": "view",
      "type": "function"
    },
    {
      "inputs": [
        {
          "internalType": "address",
          "name": "recipient",
          "type": "address"
        },
        {
          "internalType": "uint256",
          "name": "amount",
          "type": "uint256"
        }
      ],
      "name": "transfer",
      "outputs": [
        {
          "internalType": "bool",
          "name": "",
          "type": "bool"
        }
      ],
      "stateMutability": "nonpayable",
      "type": "function"
    },
    {
      "inputs": [
        {
          "internalType": "address",
          "name": "sender",
          "type": "address"
        },
        {
          "internalType": "address",
          "name": "recipient",
          "type": "address"
        },
        {
          "internalType": "uint256",
          "name": "amount",
          "type": "uint256"
        }
      ],
      "name": "transferFrom",
      "outputs": [
        {
          "internalType": "bool",
          "name": "",
          "type": "bool"
        }
      ],
      "stateMutability": "nonpayable",
      "type": "function"
    }
  ],
  "bytecode": "0x60806040526040518060400160405280600781526020017f46696e4178697300000000000000000000000000000000000000000000000000815250600390805190602001906200005192919062000187565b506040518060400160405280600481526020017f46494e4100000000000000000000000000000000000000000000000000000000815250600490805190602001906200009f92919062000187565b506a115eec47f6cf7e350000006005556012600660006101000a81548160ff021916908360ff160217905550348015620000d857600080fd5b5033600260006101000a81548173ffffffffffffffffffffffffffffffffffffffff021916908373ffffffffffffffffffffffffffffffffffffffff160217905550600554600080600260009054906101000a900473ffffffffffffffffffffffffffffffffffffffff1673ffffffffffffffffffffffffffffffffffffffff1673ffffffffffffffffffffffffffffffffffffffff168152602001908152602001600020819055506200029c565b828054620001959062000237565b90600052602060002090601f016020900481019282620001b9576000855562000205565b82601f10620001d457805160ff191683800117855562000205565b8280016001018555821562000205579182015b8281111562000204578251825591602001919060010190620001e7565b5b50905062000214919062000218565b5090565b5b808211156200023357600081600090555060010162000219565b5090565b600060028204905060018216806200025057607f821691505b602082108114156200026757620002666200026d565b5b50919050565b7f4e487b7100000000000000000000000000000000000000000000000000000000600052602260045260246000fd5b61191d80620002ac6000396000f3fe608060405234801561001057600080fd5b50600436106100b45760003560e01c806370a082311161007157806370a082311461018f57806395d89b41146101bf578063a0712d68146101dd578063a9059cbb146101f9578063b2bdfa7b14610229578063dd62ed3e14610247576100b4565b806306fdde03146100b9578063095ea7b3146100d757806318160ddd1461010757806323b872dd14610125578063313ce5671461015557806342966c6814610173575b600080fd5b6100c1610277565b6040516100ce91906111f3565b60405180910390f35b6100f160048036038101906100ec9190610f62565b610309565b6040516100fe91906111d8565b60405180910390f35b61010f610320565b60405161011c9190611375565b60405180910390f35b61013f600480360381019061013a9190610f13565b61032a565b60405161014c91906111d8565b60405180910390f35b61015d610414565b60405161016a9190611390565b60405180910390f35b61018d60048036038101906101889190610f9e565b61042b565b005b6101a960048036038101906101a49190610eae565b6104ea565b6040516101b69190611375565b60405180910390f35b6101c7610532565b6040516101d491906111f3565b60405180910390f35b6101f760048036038101906101f29190610f9e565b6105c4565b005b610213600480360381019061020e9190610f62565b610683565b60405161022091906111d8565b60405180910390f35b61023161069a565b60405161023e91906111bd565b60405180910390f35b610261600480360381019061025c9190610ed7565b6106c0565b60405161026e9190611375565b60405180910390f35b606060038054610286906114d9565b80601f01602080910402602001604051908101604052809291908181526020018280546102b2906114d9565b80156102ff5780601f106102d4576101008083540402835291602001916102ff565b820191906000526020600020905b8154815290600101906020018083116102e257829003601f168201915b5050505050905090565b6000610316338484610747565b6001905092915050565b6000600554905090565b6000610337848484610912565b6000600160008673ffffffffffffffffffffffffffffffffffffffff1673ffffffffffffffffffffffffffffffffffffffff16815260200190815260200160002060003373ffffffffffffffffffffffffffffffffffffffff1673ffffffffffffffffffffffffffffffffffffffff168152602001908152602001600020549050828110156103fb576040517f08c379a00000000000000000000000000000000000000000000000000000000081526004016103f2906112b5565b60405180910390fd5b6104088533858403610747565b60019150509392505050565b6000600660009054906101000a900460ff16905090565b600260009054906101000a900473ffffffffffffffffffffffffffffffffffffffff1673ffffffffffffffffffffffffffffffffffffffff163373ffffffffffffffffffffffffffffffffffffffff16146104bb576040517f08c379a00000000000000000000000000000000000000000000000000000000081526004016104b290611295565b60405180910390fd5b6104e7600260009054906101000a900473ffffffffffffffffffffffffffffffffffffffff1682610b7d565b50565b60008060008373ffffffffffffffffffffffffffffffffffffffff1673ffffffffffffffffffffffffffffffffffffffff168152602001908152602001600020549050919050565b606060048054610541906114d9565b80601f016020809104026020016040519081016040528092919081815260200182805461056d906114d9565b80156105ba5780601f1061058f576101008083540402835291602001916105ba565b820191906000526020600020905b81548152906001019060200180831161059d57829003601f168201915b5050505050905090565b600260009054906101000a900473ffffffffffffffffffffffffffffffffffffffff1673ffffffffffffffffffffffffffffffffffffffff163373ffffffffffffffffffffffffffffffffffffffff1614610654576040517f08c379a000000000000000000000000000000000000000000000000000000000815260040161064b906112d5565b60405180910390fd5b610680600260009054906101000a900473ffffffffffffffffffffffffffffffffffffffff1682610d3c565b50565b6000610690338484610912565b6001905092915050565b600260009054906101000a900473ffffffffffffffffffffffffffffffffffffffff1681565b6000600160008473ffffffffffffffffffffffffffffffffffffffff1673ffffffffffffffffffffffffffffffffffffffff16815260200190815260200160002060008373ffffffffffffffffffffffffffffffffffffffff1673ffffffffffffffffffffffffffffffffffffffff16815260200190815260200160002054905092915050565b600073ffffffffffffffffffffffffffffffffffffffff168373ffffffffffffffffffffffffffffffffffffffff1614156107b7576040517f08c379a00000000000000000000000000000000000000000000000000000000081526004016107ae90611335565b60405180910390fd5b600073ffffffffffffffffffffffffffffffffffffffff168273ffffffffffffffffffffffffffffffffffffffff161415610827576040517f08c379a000000000000000000000000000000000000000000000000000000000815260040161081e90611255565b60405180910390fd5b80600160008573ffffffffffffffffffffffffffffffffffffffff1673ffffffffffffffffffffffffffffffffffffffff16815260200190815260200160002060008473ffffffffffffffffffffffffffffffffffffffff1673ffffffffffffffffffffffffffffffffffffffff168152602001908152602001600020819055508173ffffffffffffffffffffffffffffffffffffffff168373ffffffffffffffffffffffffffffffffffffffff167f8c5be1e5ebec7d5bd14f71427d1e84f3dd0314c0f7b2291e5b200ac8c7c3b925836040516109059190611375565b60405180910390a3505050565b600073ffffffffffffffffffffffffffffffffffffffff168373ffffffffffffffffffffffffffffffffffffffff161415610982576040517f08c379a000000000000000000000000000000000000000000000000000000000815260040161097990611315565b60405180910390fd5b600073ffffffffffffffffffffffffffffffffffffffff168273ffffffffffffffffffffffffffffffffffffffff1614156109f2576040517f08c379a00000000000000000000000000000000000000000000000000000000081526004016109e990611215565b60405180910390fd5b60008060008573ffffffffffffffffffffffffffffffffffffffff1673ffffffffffffffffffffffffffffffffffffffff16815260200190815260200160002054905081811015610a78576040517f08c379a0000000000000000000000000000000000000000000000000000000008152600401610a6f90611275565b60405180910390fd5b8181036000808673ffffffffffffffffffffffffffffffffffffffff1673ffffffffffffffffffffffffffffffffffffffff16815260200190815260200160002081905550816000808573ffffffffffffffffffffffffffffffffffffffff1673ffffffffffffffffffffffffffffffffffffffff1681526020019081526020016000206000828254610b0b91906113c7565b925050819055508273ffffffffffffffffffffffffffffffffffffffff168473ffffffffffffffffffffffffffffffffffffffff167fddf252ad1be2c89b69c2b068fc378daa952ba7f163c4a11628f55a4df523b3ef84604051610b6f9190611375565b60405180910390a350505050565b600073ffffffffffffffffffffffffffffffffffffffff168273ffffffffffffffffffffffffffffffffffffffff161415610bed576040517f08c379a0000000000000000000000000000000000000000000000000000000008152600401610be4906112f5565b60405180910390fd5b60008060008473ffffffffffffffffffffffffffffffffffffffff1673ffffffffffffffffffffffffffffffffffffffff16815260200190815260200160002054905081811015610c73576040517f08c379a0000000000000000000000000000000000000000000000000000000008152600401610c6a90611235565b60405180910390fd5b8181036000808573ffffffffffffffffffffffffffffffffffffffff1673ffffffffffffffffffffffffffffffffffffffff168152602001908152602001600020819055508160056000828254610cca919061141d565b92505081905550600073ffffffffffffffffffffffffffffffffffffffff168373ffffffffffffffffffffffffffffffffffffffff167fddf252ad1be2c89b69c2b068fc378daa952ba7f163c4a11628f55a4df523b3ef84604051610d2f9190611375565b60405180910390a3505050565b600073ffffffffffffffffffffffffffffffffffffffff168273ffffffffffffffffffffffffffffffffffffffff161415610dac576040517f08c379a0000000000000000000000000000000000000000000000000000000008152600401610da390611355565b60405180910390fd5b8060056000828254610dbe91906113c7565b92505081905550806000808473ffffffffffffffffffffffffffffffffffffffff1673ffffffffffffffffffffffffffffffffffffffff1681526020019081526020016000206000828254610e1391906113c7565b925050819055508173ffffffffffffffffffffffffffffffffffffffff16600073ffffffffffffffffffffffffffffffffffffffff167fddf252ad1be2c89b69c2b068fc378daa952ba7f163c4a11628f55a4df523b3ef83604051610e789190611375565b60405180910390a35050565b600081359050610e93816118b9565b92915050565b600081359050610ea8816118d0565b92915050565b600060208284031215610ec057600080fd5b6000610ece84828501610e84565b91505092915050565b60008060408385031215610eea57600080fd5b6000610ef885828601610e84565b9250506020610f0985828601610e84565b9150509250929050565b600080600060608486031215610f2857600080fd5b6000610f3686828701610e84565b9350506020610f4786828701610e84565b9250506040610f5886828701610e99565b9150509250925092565b60008060408385031215610f7557600080fd5b6000610f8385828601610e84565b9250506020610f9485828601610e99565b9150509250929050565b600060208284031215610fb057600080fd5b6000610fbe84828501610e99565b91505092915050565b610fd081611451565b82525050565b610fdf81611463565b82525050565b6000610ff0826113ab565b610ffa81856113b6565b935061100a8185602086016114a6565b61101381611569565b840191505092915050565b600061102b6023836113b6565b91506110368261157a565b604082019050919050565b600061104e6022836113b6565b9150611059826115c9565b604082019050919050565b60006110716022836113b6565b915061107c82611618565b604082019050919050565b60006110946026836113b6565b915061109f82611667565b604082019050919050565b60006110b76023836113b6565b91506110c2826116b6565b604082019050919050565b60006110da6028836113b6565b91506110e582611705565b604082019050919050565b60006110fd6023836113b6565b915061110882611754565b604082019050919050565b60006111206021836113b6565b915061112b826117a3565b604082019050919050565b60006111436025836113b6565b915061114e826117f2565b604082019050919050565b60006111666024836113b6565b915061117182611841565b604082019050919050565b6000611189601f836113b6565b915061119482611890565b602082019050919050565b6111a88161148f565b82525050565b6111b781611499565b82525050565b60006020820190506111d26000830184610fc7565b92915050565b60006020820190506111ed6000830184610fd6565b92915050565b6000602082019050818103600083015261120d8184610fe5565b905092915050565b6000602082019050818103600083015261122e8161101e565b9050919050565b6000602082019050818103600083015261124e81611041565b9050919050565b6000602082019050818103600083015261126e81611064565b9050919050565b6000602082019050818103600083015261128e81611087565b9050919050565b600060208201905081810360008301526112ae816110aa565b9050919050565b600060208201905081810360008301526112ce816110cd565b9050919050565b600060208201905081810360008301526112ee816110f0565b9050919050565b6000602082019050818103600083015261130e81611113565b9050919050565b6000602082019050818103600083015261132e81611136565b9050919050565b6000602082019050818103600083015261134e81611159565b9050919050565b6000602082019050818103600083015261136e8161117c565b9050919050565b600060208201905061138a600083018461119f565b92915050565b60006020820190506113a560008301846111ae565b92915050565b600081519050919050565b600082825260208201905092915050565b60006113d28261148f565b91506113dd8361148f565b9250827fffffffffffffffffffffffffffffffffffffffffffffffffffffffffffffffff038211156114125761141161150b565b5b828201905092915050565b60006114288261148f565b91506114338361148f565b9250828210156114465761144561150b565b5b828203905092915050565b600061145c8261146f565b9050919050565b60008115159050919050565b600073ffffffffffffffffffffffffffffffffffffffff82169050919050565b6000819050919050565b600060ff82169050919050565b60005b838110156114c45780820151818401526020810190506114a9565b838111156114d3576000848401525b50505050565b600060028204905060018216806114f157607f821691505b602082108114156115055761150461153a565b5b50919050565b7f4e487b7100000000000000000000000000000000000000000000000000000000600052601160045260246000fd5b7f4e487b7100000000000000000000000000000000000000000000000000000000600052602260045260246000fd5b6000601f19601f8301169050919050565b7f45524332303a207472616e7366657220746f20746865207a65726f206164647260008201527f6573730000000000000000000000000000000000000000000000000000000000602082015250565b7f45524332303a206275726e20616d6f756e7420657863656564732062616c616e60008201527f6365000000000000000000000000000000000000000000000000000000000000602082015250565b7f45524332303a20617070726f766520746f20746865207a65726f20616464726560008201527f7373000000000000000000000000000000000000000000000000000000000000602082015250565b7f45524332303a207472616e7366657220616d6f756e742065786365656473206260008201527f616c616e63650000000000000000000000000000000000000000000000000000602082015250565b7f596f7520617265206e6f7420617574686f72697a656420746f206275726e204660008201527f494e410000000000000000000000000000000000000000000000000000000000602082015250565b7f45524332303a207472616e7366657220616d6f756e742065786365656473206160008201527f6c6c6f77616e6365000000000000000000000000000000000000000000000000602082015250565b7f596f7520617265206e6f7420617574686f72697a656420746f206d696e74204660008201527f494e410000000000000000000000000000000000000000000000000000000000602082015250565b7f45524332303a206275726e2066726f6d20746865207a65726f2061646472657360008201527f7300000000000000000000000000000000000000000000000000000000000000602082015250565b7f45524332303a207472616e736665722066726f6d20746865207a65726f20616460008201527f6472657373000000000000000000000000000000000000000000000000000000602082015250565b7f45524332303a20617070726f76652066726f6d20746865207a65726f2061646460008201527f7265737300000000000000000000000000000000000000000000000000000000602082015250565b7f45524332303a206d696e7420746f20746865207a65726f206164647265737300600082015250565b6118c281611451565b81146118cd57600080fd5b50565b6118d98161148f565b81146118e457600080fd5b5056fea2646970667358221220ebc2201649f55842b58e60870d0589980f8109247ccf76d3d950c1222ad1968364736f6c63430008040033",
  "linkReferences": {},
  "deployedLinkReferences": {}
}