{
  "_format": "hh-sol-artifact-1",
  "contractName": "Enoch",
  "sourceName": "contracts/Enoch.sol",
  "abi": [
    {
      "inputs": [],
      "stateMutability": "nonpayable",
      "type": "constructor"
    },
    {
      "anonymous": false,
      "inputs": [
        {
          "indexed": true,
          "internalType": "address",
          "name": "owner",
          "type": "address"
        },
        {
          "indexed": true,
          "internalType": "address",
          "name": "spender",
          "type": "address"
        },
        {
          "indexed": false,
          "internalType": "uint256",
          "name": "value",
          "type": "uint256"
        }
      ],
      "name": "Approval",
      "type": "event"
    },
    {
      "anonymous": false,
      "inputs": [
        {
          "indexed": true,
          "internalType": "address",
          "name": "from",
          "type": "address"
        },
        {
          "indexed": true,
          "internalType": "address",
          "name": "to",
          "type": "address"
        },
        {
          "indexed": false,
          "internalType": "uint256",
          "name": "value",
          "type": "uint256"
        }
      ],
      "name": "Transfer",
      "type": "event"
    },
    {
      "inputs": [],
      "name": "_owner",
      "outputs": [
        {
          "internalType": "address",
          "name": "",
          "type": "address"
        }
      ],
      "stateMutability": "view",
      "type": "function"
    },
    {
      "inputs": [
        {
          "internalType": "address",
          "name": "owner",
          "type": "address"
        },
        {
          "internalType": "address",
          "name": "spender",
          "type": "address"
        }
      ],
      "name": "allowance",
      "outputs": [
        {
          "internalType": "uint256",
          "name": "",
          "type": "uint256"
        }
      ],
      "stateMutability": "view",
      "type": "function"
    },
    {
      "inputs": [
        {
          "internalType": "address",
          "name": "spender",
          "type": "address"
        },
        {
          "internalType": "uint256",
          "name": "amount",
          "type": "uint256"
        }
      ],
      "name": "approve",
      "outputs": [
        {
          "internalType": "bool",
          "name": "",
          "type": "bool"
        }
      ],
      "stateMutability": "nonpayable",
      "type": "function"
    },
    {
      "inputs": [
        {
          "internalType": "address",
          "name": "account",
          "type": "address"
        }
      ],
      "name": "balanceOf",
      "outputs": [
        {
          "internalType": "uint256",
          "name": "",
          "type": "uint256"
        }
      ],
      "stateMutability": "view",
      "type": "function"
    },
    {
      "inputs": [
        {
          "internalType": "address",
          "name": "account",
          "type": "address"
        },
        {
          "internalType": "uint256",
          "name": "amount",
          "type": "uint256"
        }
      ],
      "name": "burn",
      "outputs": [],
      "stateMutability": "nonpayable",
      "type": "function"
    },
    {
      "inputs": [],
      "name": "decimals",
      "outputs": [
        {
          "internalType": "uint8",
          "name": "",
          "type": "uint8"
        }
      ],
      "stateMutability": "view",
      "type": "function"
    },
    {
      "inputs": [
        {
          "internalType": "address",
          "name": "account",
          "type": "address"
        },
        {
          "internalType": "uint256",
          "name": "amount",
          "type": "uint256"
        }
      ],
      "name": "mint",
      "outputs": [],
      "stateMutability": "nonpayable",
      "type": "function"
    },
    {
      "inputs": [],
      "name": "name",
      "outputs": [
        {
          "internalType": "string",
          "name": "",
          "type": "string"
        }
      ],
      "stateMutability": "view",
      "type": "function"
    },
    {
      "inputs": [],
      "name": "symbol",
      "outputs": [
        {
          "internalType": "string",
          "name": "",
          "type": "string"
        }
      ],
      "stateMutability": "view",
      "type": "function"
    },
    {
      "inputs": [],
      "name": "totalSupply",
      "outputs": [
        {
          "internalType": "uint256",
          "name": "",
          "type": "uint256"
        }
      ],
      "stateMutability": "view",
      "type": "function"
    },
    {
      "inputs": [
        {
          "internalType": "address",
          "name": "recipient",
          "type": "address"
        },
        {
          "internalType": "uint256",
          "name": "amount",
          "type": "uint256"
        }
      ],
      "name": "transfer",
      "outputs": [
        {
          "internalType": "bool",
          "name": "",
          "type": "bool"
        }
      ],
      "stateMutability": "nonpayable",
      "type": "function"
    },
    {
      "inputs": [
        {
          "internalType": "address",
          "name": "sender",
          "type": "address"
        },
        {
          "internalType": "address",
          "name": "recipient",
          "type": "address"
        },
        {
          "internalType": "uint256",
          "name": "amount",
          "type": "uint256"
        }
      ],
      "name": "transferFrom",
      "outputs": [
        {
          "internalType": "bool",
          "name": "",
          "type": "bool"
        }
      ],
      "stateMutability": "nonpayable",
      "type": "function"
    }
  ],
  "bytecode": "0x60806040526040518060400160405280600581526020017f454e4f4348000000000000000000000000000000000000000000000000000000815250600390805190602001906200005192919062000187565b506040518060400160405280600581526020017f454e4f4348000000000000000000000000000000000000000000000000000000815250600490805190602001906200009f92919062000187565b506a04f68ca6d8cd91c60000006005556012600660006101000a81548160ff021916908360ff160217905550348015620000d857600080fd5b5033600260006101000a81548173ffffffffffffffffffffffffffffffffffffffff021916908373ffffffffffffffffffffffffffffffffffffffff160217905550600554600080600260009054906101000a900473ffffffffffffffffffffffffffffffffffffffff1673ffffffffffffffffffffffffffffffffffffffff1673ffffffffffffffffffffffffffffffffffffffff168152602001908152602001600020819055506200029c565b828054620001959062000237565b90600052602060002090601f016020900481019282620001b9576000855562000205565b82601f10620001d457805160ff191683800117855562000205565b8280016001018555821562000205579182015b8281111562000204578251825591602001919060010190620001e7565b5b50905062000214919062000218565b5090565b5b808211156200023357600081600090555060010162000219565b5090565b600060028204905060018216806200025057607f821691505b602082108114156200026757620002666200026d565b5b50919050565b7f4e487b7100000000000000000000000000000000000000000000000000000000600052602260045260246000fd5b6118b280620002ac6000396000f3fe608060405234801561001057600080fd5b50600436106100b45760003560e01c806370a082311161007157806370a082311461018f57806395d89b41146101bf5780639dc29fac146101dd578063a9059cbb146101f9578063b2bdfa7b14610229578063dd62ed3e14610247576100b4565b806306fdde03146100b9578063095ea7b3146100d757806318160ddd1461010757806323b872dd14610125578063313ce5671461015557806340c10f1914610173575b600080fd5b6100c1610277565b6040516100ce9190611188565b60405180910390f35b6100f160048036038101906100ec9190610f20565b610309565b6040516100fe919061116d565b60405180910390f35b61010f610320565b60405161011c919061130a565b60405180910390f35b61013f600480360381019061013a9190610ed1565b61032a565b60405161014c919061116d565b60405180910390f35b61015d610414565b60405161016a9190611325565b60405180910390f35b61018d60048036038101906101889190610f20565b61042b565b005b6101a960048036038101906101a49190610e6c565b6104c9565b6040516101b6919061130a565b60405180910390f35b6101c7610511565b6040516101d49190611188565b60405180910390f35b6101f760048036038101906101f29190610f20565b6105a3565b005b610213600480360381019061020e9190610f20565b610641565b604051610220919061116d565b60405180910390f35b610231610658565b60405161023e9190611152565b60405180910390f35b610261600480360381019061025c9190610e95565b61067e565b60405161026e919061130a565b60405180910390f35b6060600380546102869061146e565b80601f01602080910402602001604051908101604052809291908181526020018280546102b29061146e565b80156102ff5780601f106102d4576101008083540402835291602001916102ff565b820191906000526020600020905b8154815290600101906020018083116102e257829003601f168201915b5050505050905090565b6000610316338484610705565b6001905092915050565b6000600554905090565b60006103378484846108d0565b6000600160008673ffffffffffffffffffffffffffffffffffffffff1673ffffffffffffffffffffffffffffffffffffffff16815260200190815260200160002060003373ffffffffffffffffffffffffffffffffffffffff1673ffffffffffffffffffffffffffffffffffffffff168152602001908152602001600020549050828110156103fb576040517f08c379a00000000000000000000000000000000000000000000000000000000081526004016103f29061124a565b60405180910390fd5b6104088533858403610705565b60019150509392505050565b6000600660009054906101000a900460ff16905090565b600260009054906101000a900473ffffffffffffffffffffffffffffffffffffffff1673ffffffffffffffffffffffffffffffffffffffff163373ffffffffffffffffffffffffffffffffffffffff16146104bb576040517f08c379a00000000000000000000000000000000000000000000000000000000081526004016104b29061126a565b60405180910390fd5b6104c58282610b3b565b5050565b60008060008373ffffffffffffffffffffffffffffffffffffffff1673ffffffffffffffffffffffffffffffffffffffff168152602001908152602001600020549050919050565b6060600480546105209061146e565b80601f016020809104026020016040519081016040528092919081815260200182805461054c9061146e565b80156105995780601f1061056e57610100808354040283529160200191610599565b820191906000526020600020905b81548152906001019060200180831161057c57829003601f168201915b5050505050905090565b600260009054906101000a900473ffffffffffffffffffffffffffffffffffffffff1673ffffffffffffffffffffffffffffffffffffffff163373ffffffffffffffffffffffffffffffffffffffff1614610633576040517f08c379a000000000000000000000000000000000000000000000000000000000815260040161062a9061122a565b60405180910390fd5b61063d8282610c83565b5050565b600061064e3384846108d0565b6001905092915050565b600260009054906101000a900473ffffffffffffffffffffffffffffffffffffffff1681565b6000600160008473ffffffffffffffffffffffffffffffffffffffff1673ffffffffffffffffffffffffffffffffffffffff16815260200190815260200160002060008373ffffffffffffffffffffffffffffffffffffffff1673ffffffffffffffffffffffffffffffffffffffff16815260200190815260200160002054905092915050565b600073ffffffffffffffffffffffffffffffffffffffff168373ffffffffffffffffffffffffffffffffffffffff161415610775576040517f08c379a000000000000000000000000000000000000000000000000000000000815260040161076c906112ca565b60405180910390fd5b600073ffffffffffffffffffffffffffffffffffffffff168273ffffffffffffffffffffffffffffffffffffffff1614156107e5576040517f08c379a00000000000000000000000000000000000000000000000000000000081526004016107dc906111ea565b60405180910390fd5b80600160008573ffffffffffffffffffffffffffffffffffffffff1673ffffffffffffffffffffffffffffffffffffffff16815260200190815260200160002060008473ffffffffffffffffffffffffffffffffffffffff1673ffffffffffffffffffffffffffffffffffffffff168152602001908152602001600020819055508173ffffffffffffffffffffffffffffffffffffffff168373ffffffffffffffffffffffffffffffffffffffff167f8c5be1e5ebec7d5bd14f71427d1e84f3dd0314c0f7b2291e5b200ac8c7c3b925836040516108c3919061130a565b60405180910390a3505050565b600073ffffffffffffffffffffffffffffffffffffffff168373ffffffffffffffffffffffffffffffffffffffff161415610940576040517f08c379a0000000000000000000000000000000000000000000000000000000008152600401610937906112aa565b60405180910390fd5b600073ffffffffffffffffffffffffffffffffffffffff168273ffffffffffffffffffffffffffffffffffffffff1614156109b0576040517f08c379a00000000000000000000000000000000000000000000000000000000081526004016109a7906111aa565b60405180910390fd5b60008060008573ffffffffffffffffffffffffffffffffffffffff1673ffffffffffffffffffffffffffffffffffffffff16815260200190815260200160002054905081811015610a36576040517f08c379a0000000000000000000000000000000000000000000000000000000008152600401610a2d9061120a565b60405180910390fd5b8181036000808673ffffffffffffffffffffffffffffffffffffffff1673ffffffffffffffffffffffffffffffffffffffff16815260200190815260200160002081905550816000808573ffffffffffffffffffffffffffffffffffffffff1673ffffffffffffffffffffffffffffffffffffffff1681526020019081526020016000206000828254610ac9919061135c565b925050819055508273ffffffffffffffffffffffffffffffffffffffff168473ffffffffffffffffffffffffffffffffffffffff167fddf252ad1be2c89b69c2b068fc378daa952ba7f163c4a11628f55a4df523b3ef84604051610b2d919061130a565b60405180910390a350505050565b600073ffffffffffffffffffffffffffffffffffffffff168273ffffffffffffffffffffffffffffffffffffffff161415610bab576040517f08c379a0000000000000000000000000000000000000000000000000000000008152600401610ba2906112ea565b60405180910390fd5b8060056000828254610bbd919061135c565b92505081905550806000808473ffffffffffffffffffffffffffffffffffffffff1673ffffffffffffffffffffffffffffffffffffffff1681526020019081526020016000206000828254610c12919061135c565b925050819055508173ffffffffffffffffffffffffffffffffffffffff16600073ffffffffffffffffffffffffffffffffffffffff167fddf252ad1be2c89b69c2b068fc378daa952ba7f163c4a11628f55a4df523b3ef83604051610c77919061130a565b60405180910390a35050565b600073ffffffffffffffffffffffffffffffffffffffff168273ffffffffffffffffffffffffffffffffffffffff161415610cf3576040517f08c379a0000000000000000000000000000000000000000000000000000000008152600401610cea9061128a565b60405180910390fd5b60008060008473ffffffffffffffffffffffffffffffffffffffff1673ffffffffffffffffffffffffffffffffffffffff16815260200190815260200160002054905081811015610d79576040517f08c379a0000000000000000000000000000000000000000000000000000000008152600401610d70906111ca565b60405180910390fd5b8181036000808573ffffffffffffffffffffffffffffffffffffffff1673ffffffffffffffffffffffffffffffffffffffff168152602001908152602001600020819055508160056000828254610dd091906113b2565b92505081905550600073ffffffffffffffffffffffffffffffffffffffff168373ffffffffffffffffffffffffffffffffffffffff167fddf252ad1be2c89b69c2b068fc378daa952ba7f163c4a11628f55a4df523b3ef84604051610e35919061130a565b60405180910390a3505050565b600081359050610e518161184e565b92915050565b600081359050610e6681611865565b92915050565b600060208284031215610e7e57600080fd5b6000610e8c84828501610e42565b91505092915050565b60008060408385031215610ea857600080fd5b6000610eb685828601610e42565b9250506020610ec785828601610e42565b9150509250929050565b600080600060608486031215610ee657600080fd5b6000610ef486828701610e42565b9350506020610f0586828701610e42565b9250506040610f1686828701610e57565b9150509250925092565b60008060408385031215610f3357600080fd5b6000610f4185828601610e42565b9250506020610f5285828601610e57565b9150509250929050565b610f65816113e6565b82525050565b610f74816113f8565b82525050565b6000610f8582611340565b610f8f818561134b565b9350610f9f81856020860161143b565b610fa8816114fe565b840191505092915050565b6000610fc060238361134b565b9150610fcb8261150f565b604082019050919050565b6000610fe360228361134b565b9150610fee8261155e565b604082019050919050565b600061100660228361134b565b9150611011826115ad565b604082019050919050565b600061102960268361134b565b9150611034826115fc565b604082019050919050565b600061104c60238361134b565b91506110578261164b565b604082019050919050565b600061106f60288361134b565b915061107a8261169a565b604082019050919050565b600061109260238361134b565b915061109d826116e9565b604082019050919050565b60006110b560218361134b565b91506110c082611738565b604082019050919050565b60006110d860258361134b565b91506110e382611787565b604082019050919050565b60006110fb60248361134b565b9150611106826117d6565b604082019050919050565b600061111e601f8361134b565b915061112982611825565b602082019050919050565b61113d81611424565b82525050565b61114c8161142e565b82525050565b60006020820190506111676000830184610f5c565b92915050565b60006020820190506111826000830184610f6b565b92915050565b600060208201905081810360008301526111a28184610f7a565b905092915050565b600060208201905081810360008301526111c381610fb3565b9050919050565b600060208201905081810360008301526111e381610fd6565b9050919050565b6000602082019050818103600083015261120381610ff9565b9050919050565b600060208201905081810360008301526112238161101c565b9050919050565b600060208201905081810360008301526112438161103f565b9050919050565b6000602082019050818103600083015261126381611062565b9050919050565b6000602082019050818103600083015261128381611085565b9050919050565b600060208201905081810360008301526112a3816110a8565b9050919050565b600060208201905081810360008301526112c3816110cb565b9050919050565b600060208201905081810360008301526112e3816110ee565b9050919050565b6000602082019050818103600083015261130381611111565b9050919050565b600060208201905061131f6000830184611134565b92915050565b600060208201905061133a6000830184611143565b92915050565b600081519050919050565b600082825260208201905092915050565b600061136782611424565b915061137283611424565b9250827fffffffffffffffffffffffffffffffffffffffffffffffffffffffffffffffff038211156113a7576113a66114a0565b5b828201905092915050565b60006113bd82611424565b91506113c883611424565b9250828210156113db576113da6114a0565b5b828203905092915050565b60006113f182611404565b9050919050565b60008115159050919050565b600073ffffffffffffffffffffffffffffffffffffffff82169050919050565b6000819050919050565b600060ff82169050919050565b60005b8381101561145957808201518184015260208101905061143e565b83811115611468576000848401525b50505050565b6000600282049050600182168061148657607f821691505b6020821081141561149a576114996114cf565b5b50919050565b7f4e487b7100000000000000000000000000000000000000000000000000000000600052601160045260246000fd5b7f4e487b7100000000000000000000000000000000000000000000000000000000600052602260045260246000fd5b6000601f19601f8301169050919050565b7f45524332303a207472616e7366657220746f20746865207a65726f206164647260008201527f6573730000000000000000000000000000000000000000000000000000000000602082015250565b7f45524332303a206275726e20616d6f756e7420657863656564732062616c616e60008201527f6365000000000000000000000000000000000000000000000000000000000000602082015250565b7f45524332303a20617070726f766520746f20746865207a65726f20616464726560008201527f7373000000000000000000000000000000000000000000000000000000000000602082015250565b7f45524332303a207472616e7366657220616d6f756e742065786365656473206260008201527f616c616e63650000000000000000000000000000000000000000000000000000602082015250565b7f596f7520617265206e6f7420617574686f72697a656420746f206275726e204660008201527f494e410000000000000000000000000000000000000000000000000000000000602082015250565b7f45524332303a207472616e7366657220616d6f756e742065786365656473206160008201527f6c6c6f77616e6365000000000000000000000000000000000000000000000000602082015250565b7f596f7520617265206e6f7420617574686f72697a656420746f206d696e74204660008201527f494e410000000000000000000000000000000000000000000000000000000000602082015250565b7f45524332303a206275726e2066726f6d20746865207a65726f2061646472657360008201527f7300000000000000000000000000000000000000000000000000000000000000602082015250565b7f45524332303a207472616e736665722066726f6d20746865207a65726f20616460008201527f6472657373000000000000000000000000000000000000000000000000000000602082015250565b7f45524332303a20617070726f76652066726f6d20746865207a65726f2061646460008201527f7265737300000000000000000000000000000000000000000000000000000000602082015250565b7f45524332303a206d696e7420746f20746865207a65726f206164647265737300600082015250565b611857816113e6565b811461186257600080fd5b50565b61186e81611424565b811461187957600080fd5b5056fea2646970667358221220de4d15fb292737eda95846cf25748efa6c9106e0f0ee57dda3ab9ec6c431bb5864736f6c63430008040033",
  "linkReferences": {},
  "deployedLinkReferences": {}
}