{
  "contractName": "FinAxis",
  "abi": [
    {
      "inputs": [],
      "stateMutability": "nonpayable",
      "type": "constructor"
    },
    {
      "anonymous": false,
      "inputs": [
        {
          "indexed": true,
          "internalType": "address",
          "name": "owner",
          "type": "address"
        },
        {
          "indexed": true,
          "internalType": "address",
          "name": "spender",
          "type": "address"
        },
        {
          "indexed": false,
          "internalType": "uint256",
          "name": "value",
          "type": "uint256"
        }
      ],
      "name": "Approval",
      "type": "event"
    },
    {
      "anonymous": false,
      "inputs": [
        {
          "indexed": true,
          "internalType": "address",
          "name": "from",
          "type": "address"
        },
        {
          "indexed": true,
          "internalType": "address",
          "name": "to",
          "type": "address"
        },
        {
          "indexed": false,
          "internalType": "uint256",
          "name": "value",
          "type": "uint256"
        }
      ],
      "name": "Transfer",
      "type": "event"
    },
    {
      "inputs": [],
      "name": "_owner",
      "outputs": [
        {
          "internalType": "address",
          "name": "",
          "type": "address"
        }
      ],
      "stateMutability": "view",
      "type": "function",
      "constant": true
    },
    {
      "inputs": [],
      "name": "name",
      "outputs": [
        {
          "internalType": "string",
          "name": "",
          "type": "string"
        }
      ],
      "stateMutability": "view",
      "type": "function",
      "constant": true
    },
    {
      "inputs": [],
      "name": "symbol",
      "outputs": [
        {
          "internalType": "string",
          "name": "",
          "type": "string"
        }
      ],
      "stateMutability": "view",
      "type": "function",
      "constant": true
    },
    {
      "inputs": [],
      "name": "decimals",
      "outputs": [
        {
          "internalType": "uint8",
          "name": "",
          "type": "uint8"
        }
      ],
      "stateMutability": "view",
      "type": "function",
      "constant": true
    },
    {
      "inputs": [],
      "name": "totalSupply",
      "outputs": [
        {
          "internalType": "uint256",
          "name": "",
          "type": "uint256"
        }
      ],
      "stateMutability": "view",
      "type": "function",
      "constant": true
    },
    {
      "inputs": [
        {
          "internalType": "address",
          "name": "account",
          "type": "address"
        }
      ],
      "name": "balanceOf",
      "outputs": [
        {
          "internalType": "uint256",
          "name": "",
          "type": "uint256"
        }
      ],
      "stateMutability": "view",
      "type": "function",
      "constant": true
    },
    {
      "inputs": [
        {
          "internalType": "address",
          "name": "recipient",
          "type": "address"
        },
        {
          "internalType": "uint256",
          "name": "amount",
          "type": "uint256"
        }
      ],
      "name": "transfer",
      "outputs": [
        {
          "internalType": "bool",
          "name": "",
          "type": "bool"
        }
      ],
      "stateMutability": "nonpayable",
      "type": "function"
    },
    {
      "inputs": [
        {
          "internalType": "address",
          "name": "owner",
          "type": "address"
        },
        {
          "internalType": "address",
          "name": "spender",
          "type": "address"
        }
      ],
      "name": "allowance",
      "outputs": [
        {
          "internalType": "uint256",
          "name": "",
          "type": "uint256"
        }
      ],
      "stateMutability": "view",
      "type": "function",
      "constant": true
    },
    {
      "inputs": [
        {
          "internalType": "address",
          "name": "spender",
          "type": "address"
        },
        {
          "internalType": "uint256",
          "name": "amount",
          "type": "uint256"
        }
      ],
      "name": "approve",
      "outputs": [
        {
          "internalType": "bool",
          "name": "",
          "type": "bool"
        }
      ],
      "stateMutability": "nonpayable",
      "type": "function"
    },
    {
      "inputs": [
        {
          "internalType": "address",
          "name": "sender",
          "type": "address"
        },
        {
          "internalType": "address",
          "name": "recipient",
          "type": "address"
        },
        {
          "internalType": "uint256",
          "name": "amount",
          "type": "uint256"
        }
      ],
      "name": "transferFrom",
      "outputs": [
        {
          "internalType": "bool",
          "name": "",
          "type": "bool"
        }
      ],
      "stateMutability": "nonpayable",
      "type": "function"
    },
    {
      "inputs": [
        {
          "internalType": "uint256",
          "name": "amount",
          "type": "uint256"
        }
      ],
      "name": "mint",
      "outputs": [],
      "stateMutability": "nonpayable",
      "type": "function"
    },
    {
      "inputs": [
        {
          "internalType": "uint256",
          "name": "amount",
          "type": "uint256"
        }
      ],
      "name": "burn",
      "outputs": [],
      "stateMutability": "nonpayable",
      "type": "function"
    }
  ],
  "bytecode": "0x60806040526040518060400160405280600781526020017f46696e4178697300000000000000000000000000000000000000000000000000815250600390805190602001906200005192919062000184565b506040518060400160405280600481526020017f46494e4100000000000000000000000000000000000000000000000000000000815250600490805190602001906200009f92919062000184565b506702ea11e32ad50000600555600a600660006101000a81548160ff021916908360ff160217905550348015620000d557600080fd5b5033600260006101000a81548173ffffffffffffffffffffffffffffffffffffffff021916908373ffffffffffffffffffffffffffffffffffffffff160217905550600554600080600260009054906101000a900473ffffffffffffffffffffffffffffffffffffffff1673ffffffffffffffffffffffffffffffffffffffff1673ffffffffffffffffffffffffffffffffffffffff1681526020019081526020016000208190555062000299565b828054620001929062000234565b90600052602060002090601f016020900481019282620001b6576000855562000202565b82601f10620001d157805160ff191683800117855562000202565b8280016001018555821562000202579182015b8281111562000201578251825591602001919060010190620001e4565b5b50905062000211919062000215565b5090565b5b808211156200023057600081600090555060010162000216565b5090565b600060028204905060018216806200024d57607f821691505b602082108114156200026457620002636200026a565b5b50919050565b7f4e487b7100000000000000000000000000000000000000000000000000000000600052602260045260246000fd5b61189980620002a96000396000f3fe608060405234801561001057600080fd5b50600436106100b45760003560e01c806370a082311161007157806370a082311461018f57806395d89b41146101bf578063a0712d68146101dd578063a9059cbb146101f9578063b2bdfa7b14610229578063dd62ed3e14610247576100b4565b806306fdde03146100b9578063095ea7b3146100d757806318160ddd1461010757806323b872dd14610125578063313ce5671461015557806342966c6814610173575b600080fd5b6100c1610277565b6040516100ce91906114ae565b60405180910390f35b6100f160048036038101906100ec9190610f62565b610309565b6040516100fe9190611493565b60405180910390f35b61010f610320565b60405161011c9190611630565b60405180910390f35b61013f600480360381019061013a9190610f13565b61032a565b60405161014c9190611493565b60405180910390f35b61015d610414565b60405161016a919061164b565b60405180910390f35b61018d60048036038101906101889190610f9e565b61042b565b005b6101a960048036038101906101a49190610eae565b6104ea565b6040516101b69190611630565b60405180910390f35b6101c7610532565b6040516101d491906114ae565b60405180910390f35b6101f760048036038101906101f29190610f9e565b6105c4565b005b610213600480360381019061020e9190610f62565b610683565b6040516102209190611493565b60405180910390f35b61023161069a565b60405161023e9190611478565b60405180910390f35b610261600480360381019061025c9190610ed7565b6106c0565b60405161026e9190611630565b60405180910390f35b60606003805461028690611794565b80601f01602080910402602001604051908101604052809291908181526020018280546102b290611794565b80156102ff5780601f106102d4576101008083540402835291602001916102ff565b820191906000526020600020905b8154815290600101906020018083116102e257829003601f168201915b5050505050905090565b6000610316338484610747565b6001905092915050565b6000600554905090565b6000610337848484610912565b6000600160008673ffffffffffffffffffffffffffffffffffffffff1673ffffffffffffffffffffffffffffffffffffffff16815260200190815260200160002060003373ffffffffffffffffffffffffffffffffffffffff1673ffffffffffffffffffffffffffffffffffffffff168152602001908152602001600020549050828110156103fb576040517f08c379a00000000000000000000000000000000000000000000000000000000081526004016103f290611570565b60405180910390fd5b6104088533858403610747565b60019150509392505050565b6000600660009054906101000a900460ff16905090565b600260009054906101000a900473ffffffffffffffffffffffffffffffffffffffff1673ffffffffffffffffffffffffffffffffffffffff163373ffffffffffffffffffffffffffffffffffffffff16146104bb576040517f08c379a00000000000000000000000000000000000000000000000000000000081526004016104b290611550565b60405180910390fd5b6104e7600260009054906101000a900473ffffffffffffffffffffffffffffffffffffffff1682610b7d565b50565b60008060008373ffffffffffffffffffffffffffffffffffffffff1673ffffffffffffffffffffffffffffffffffffffff168152602001908152602001600020549050919050565b60606004805461054190611794565b80601f016020809104026020016040519081016040528092919081815260200182805461056d90611794565b80156105ba5780601f1061058f576101008083540402835291602001916105ba565b820191906000526020600020905b81548152906001019060200180831161059d57829003601f168201915b5050505050905090565b600260009054906101000a900473ffffffffffffffffffffffffffffffffffffffff1673ffffffffffffffffffffffffffffffffffffffff163373ffffffffffffffffffffffffffffffffffffffff1614610654576040517f08c379a000000000000000000000000000000000000000000000000000000000815260040161064b90611590565b60405180910390fd5b610680600260009054906101000a900473ffffffffffffffffffffffffffffffffffffffff1682610d3c565b50565b6000610690338484610912565b6001905092915050565b600260009054906101000a900473ffffffffffffffffffffffffffffffffffffffff1681565b6000600160008473ffffffffffffffffffffffffffffffffffffffff1673ffffffffffffffffffffffffffffffffffffffff16815260200190815260200160002060008373ffffffffffffffffffffffffffffffffffffffff1673ffffffffffffffffffffffffffffffffffffffff16815260200190815260200160002054905092915050565b600073ffffffffffffffffffffffffffffffffffffffff168373ffffffffffffffffffffffffffffffffffffffff1614156107b7576040517f08c379a00000000000000000000000000000000000000000000000000000000081526004016107ae906115f0565b60405180910390fd5b600073ffffffffffffffffffffffffffffffffffffffff168273ffffffffffffffffffffffffffffffffffffffff161415610827576040517f08c379a000000000000000000000000000000000000000000000000000000000815260040161081e90611510565b60405180910390fd5b80600160008573ffffffffffffffffffffffffffffffffffffffff1673ffffffffffffffffffffffffffffffffffffffff16815260200190815260200160002060008473ffffffffffffffffffffffffffffffffffffffff1673ffffffffffffffffffffffffffffffffffffffff168152602001908152602001600020819055508173ffffffffffffffffffffffffffffffffffffffff168373ffffffffffffffffffffffffffffffffffffffff167f8c5be1e5ebec7d5bd14f71427d1e84f3dd0314c0f7b2291e5b200ac8c7c3b925836040516109059190611630565b60405180910390a3505050565b600073ffffffffffffffffffffffffffffffffffffffff168373ffffffffffffffffffffffffffffffffffffffff161415610982576040517f08c379a0000000000000000000000000000000000000000000000000000000008152600401610979906115d0565b60405180910390fd5b600073ffffffffffffffffffffffffffffffffffffffff168273ffffffffffffffffffffffffffffffffffffffff1614156109f2576040517f08c379a00000000000000000000000000000000000000000000000000000000081526004016109e9906114d0565b60405180910390fd5b60008060008573ffffffffffffffffffffffffffffffffffffffff1673ffffffffffffffffffffffffffffffffffffffff16815260200190815260200160002054905081811015610a78576040517f08c379a0000000000000000000000000000000000000000000000000000000008152600401610a6f90611530565b60405180910390fd5b8181036000808673ffffffffffffffffffffffffffffffffffffffff1673ffffffffffffffffffffffffffffffffffffffff16815260200190815260200160002081905550816000808573ffffffffffffffffffffffffffffffffffffffff1673ffffffffffffffffffffffffffffffffffffffff1681526020019081526020016000206000828254610b0b9190611682565b925050819055508273ffffffffffffffffffffffffffffffffffffffff168473ffffffffffffffffffffffffffffffffffffffff167fddf252ad1be2c89b69c2b068fc378daa952ba7f163c4a11628f55a4df523b3ef84604051610b6f9190611630565b60405180910390a350505050565b600073ffffffffffffffffffffffffffffffffffffffff168273ffffffffffffffffffffffffffffffffffffffff161415610bed576040517f08c379a0000000000000000000000000000000000000000000000000000000008152600401610be4906115b0565b60405180910390fd5b60008060008473ffffffffffffffffffffffffffffffffffffffff1673ffffffffffffffffffffffffffffffffffffffff16815260200190815260200160002054905081811015610c73576040517f08c379a0000000000000000000000000000000000000000000000000000000008152600401610c6a906114f0565b60405180910390fd5b8181036000808573ffffffffffffffffffffffffffffffffffffffff1673ffffffffffffffffffffffffffffffffffffffff168152602001908152602001600020819055508160056000828254610cca91906116d8565b92505081905550600073ffffffffffffffffffffffffffffffffffffffff168373ffffffffffffffffffffffffffffffffffffffff167fddf252ad1be2c89b69c2b068fc378daa952ba7f163c4a11628f55a4df523b3ef84604051610d2f9190611630565b60405180910390a3505050565b600073ffffffffffffffffffffffffffffffffffffffff168273ffffffffffffffffffffffffffffffffffffffff161415610dac576040517f08c379a0000000000000000000000000000000000000000000000000000000008152600401610da390611610565b60405180910390fd5b8060056000828254610dbe9190611682565b92505081905550806000808473ffffffffffffffffffffffffffffffffffffffff1673ffffffffffffffffffffffffffffffffffffffff1681526020019081526020016000206000828254610e139190611682565b925050819055508173ffffffffffffffffffffffffffffffffffffffff16600073ffffffffffffffffffffffffffffffffffffffff167fddf252ad1be2c89b69c2b068fc378daa952ba7f163c4a11628f55a4df523b3ef83604051610e789190611630565b60405180910390a35050565b600081359050610e9381611835565b92915050565b600081359050610ea88161184c565b92915050565b600060208284031215610ec057600080fd5b6000610ece84828501610e84565b91505092915050565b60008060408385031215610eea57600080fd5b6000610ef885828601610e84565b9250506020610f0985828601610e84565b9150509250929050565b600080600060608486031215610f2857600080fd5b6000610f3686828701610e84565b9350506020610f4786828701610e84565b9250506040610f5886828701610e99565b9150509250925092565b60008060408385031215610f7557600080fd5b6000610f8385828601610e84565b9250506020610f9485828601610e99565b9150509250929050565b600060208284031215610fb057600080fd5b6000610fbe84828501610e99565b91505092915050565b610fd08161170c565b82525050565b610fdf8161171e565b82525050565b6000610ff082611666565b610ffa8185611671565b935061100a818560208601611761565b61101381611824565b840191505092915050565b600061102b602383611671565b91507f45524332303a207472616e7366657220746f20746865207a65726f206164647260008301527f65737300000000000000000000000000000000000000000000000000000000006020830152604082019050919050565b6000611091602283611671565b91507f45524332303a206275726e20616d6f756e7420657863656564732062616c616e60008301527f63650000000000000000000000000000000000000000000000000000000000006020830152604082019050919050565b60006110f7602283611671565b91507f45524332303a20617070726f766520746f20746865207a65726f20616464726560008301527f73730000000000000000000000000000000000000000000000000000000000006020830152604082019050919050565b600061115d602683611671565b91507f45524332303a207472616e7366657220616d6f756e742065786365656473206260008301527f616c616e636500000000000000000000000000000000000000000000000000006020830152604082019050919050565b60006111c3602383611671565b91507f596f7520617265206e6f7420617574686f72697a656420746f206275726e204660008301527f494e4100000000000000000000000000000000000000000000000000000000006020830152604082019050919050565b6000611229602883611671565b91507f45524332303a207472616e7366657220616d6f756e742065786365656473206160008301527f6c6c6f77616e63650000000000000000000000000000000000000000000000006020830152604082019050919050565b600061128f602383611671565b91507f596f7520617265206e6f7420617574686f72697a656420746f206d696e74204660008301527f494e4100000000000000000000000000000000000000000000000000000000006020830152604082019050919050565b60006112f5602183611671565b91507f45524332303a206275726e2066726f6d20746865207a65726f2061646472657360008301527f73000000000000000000000000000000000000000000000000000000000000006020830152604082019050919050565b600061135b602583611671565b91507f45524332303a207472616e736665722066726f6d20746865207a65726f20616460008301527f64726573730000000000000000000000000000000000000000000000000000006020830152604082019050919050565b60006113c1602483611671565b91507f45524332303a20617070726f76652066726f6d20746865207a65726f2061646460008301527f72657373000000000000000000000000000000000000000000000000000000006020830152604082019050919050565b6000611427601f83611671565b91507f45524332303a206d696e7420746f20746865207a65726f2061646472657373006000830152602082019050919050565b6114638161174a565b82525050565b61147281611754565b82525050565b600060208201905061148d6000830184610fc7565b92915050565b60006020820190506114a86000830184610fd6565b92915050565b600060208201905081810360008301526114c88184610fe5565b905092915050565b600060208201905081810360008301526114e98161101e565b9050919050565b6000602082019050818103600083015261150981611084565b9050919050565b60006020820190508181036000830152611529816110ea565b9050919050565b6000602082019050818103600083015261154981611150565b9050919050565b60006020820190508181036000830152611569816111b6565b9050919050565b600060208201905081810360008301526115898161121c565b9050919050565b600060208201905081810360008301526115a981611282565b9050919050565b600060208201905081810360008301526115c9816112e8565b9050919050565b600060208201905081810360008301526115e98161134e565b9050919050565b60006020820190508181036000830152611609816113b4565b9050919050565b600060208201905081810360008301526116298161141a565b9050919050565b6000602082019050611645600083018461145a565b92915050565b60006020820190506116606000830184611469565b92915050565b600081519050919050565b600082825260208201905092915050565b600061168d8261174a565b91506116988361174a565b9250827fffffffffffffffffffffffffffffffffffffffffffffffffffffffffffffffff038211156116cd576116cc6117c6565b5b828201905092915050565b60006116e38261174a565b91506116ee8361174a565b925082821015611701576117006117c6565b5b828203905092915050565b60006117178261172a565b9050919050565b60008115159050919050565b600073ffffffffffffffffffffffffffffffffffffffff82169050919050565b6000819050919050565b600060ff82169050919050565b60005b8381101561177f578082015181840152602081019050611764565b8381111561178e576000848401525b50505050565b600060028204905060018216806117ac57607f821691505b602082108114156117c0576117bf6117f5565b5b50919050565b7f4e487b7100000000000000000000000000000000000000000000000000000000600052601160045260246000fd5b7f4e487b7100000000000000000000000000000000000000000000000000000000600052602260045260246000fd5b6000601f19601f8301169050919050565b61183e8161170c565b811461184957600080fd5b50565b6118558161174a565b811461186057600080fd5b5056fea2646970667358221220f98372ab2f469691ddcbea85c1b87b65ee97bcc95169b36f8850e6fb252a5e9b64736f6c63430008000033",
  "immutableReferences": {},
  "source": "// SPDX-License-Identifier: MIT\n\npragma solidity ^0.8.0;\n\nimport './IERC20.sol';\n\ncontract FinAxis is IERC20 {\n    mapping(address => uint256) private _balances;\n    mapping(address => mapping(address => uint256)) private _allowances;\n    address public _owner;\n\n    string private _name = \"FinAxis\";\n    string private _symbol = \"FINA\";\n    uint256 private _totalSupply = 210000000000000000; //21,000,000 FINA tokens\n    uint8 private _decimals = 10;\n\n    constructor() public {\n        _owner = msg.sender;\n        _balances[_owner] = _totalSupply;\n    }\n\n    function name() public view virtual returns (string memory) {\n        return _name;\n    }\n\n    function symbol() public view virtual returns (string memory) {\n        return _symbol;\n    }\n\n    function decimals() public view virtual returns (uint8) {\n        return _decimals;\n    }\n\n    function totalSupply() public view virtual override returns (uint256) {\n        return _totalSupply;\n    }\n\n    function balanceOf(address account) public view virtual override returns (uint256) {\n        return _balances[account];\n    }\n\n    function transfer(address recipient, uint256 amount) public virtual override returns (bool) {\n        _transfer(msg.sender, recipient, amount);\n        return true;\n    }\n\n    function allowance(address owner, address spender) public view virtual override returns (uint256) {\n        return _allowances[owner][spender];\n    }\n\n    function approve(address spender, uint256 amount) public virtual override returns (bool) {\n        _approve(msg.sender, spender, amount);\n        return true;\n    }\n\n    function transferFrom(\n        address sender,\n        address recipient,\n        uint256 amount\n    ) public virtual override returns (bool) {\n        _transfer(sender, recipient, amount);\n\n        uint256 currentAllowance = _allowances[sender][msg.sender];\n        require(currentAllowance >= amount, \"ERC20: transfer amount exceeds allowance\");\n        unchecked {\n            _approve(sender, msg.sender, currentAllowance - amount);\n        }\n\n        return true;\n    }\n\n    function _transfer(\n        address sender,\n        address recipient,\n        uint256 amount\n    ) internal virtual {\n        require(sender != address(0), \"ERC20: transfer from the zero address\");\n        require(recipient != address(0), \"ERC20: transfer to the zero address\");\n\n        uint256 senderBalance = _balances[sender];\n        require(senderBalance >= amount, \"ERC20: transfer amount exceeds balance\");\n        unchecked {\n            _balances[sender] = senderBalance - amount;\n        }\n        _balances[recipient] += amount;\n\n        emit Transfer(sender, recipient, amount);\n    }\n\n    function mint(uint256 amount) public {\n        require(msg.sender == _owner, \"You are not authorized to mint FINA\");\n        _mint(_owner, amount);\n    }\n\n    function _mint(address account, uint256 amount) internal virtual {\n        require(account != address(0), \"ERC20: mint to the zero address\");\n\n        _totalSupply += amount;\n        _balances[account] += amount;\n        emit Transfer(address(0), account, amount);\n    }\n\n    function burn(uint256 amount) public {\n        require(msg.sender == _owner, \"You are not authorized to burn FINA\");\n        _burn(_owner, amount);\n    }\n\n    function _burn(address account, uint256 amount) internal virtual {\n        require(account != address(0), \"ERC20: burn from the zero address\");\n\n        uint256 accountBalance = _balances[account];\n        require(accountBalance >= amount, \"ERC20: burn amount exceeds balance\");\n        unchecked {\n            _balances[account] = accountBalance - amount;\n        }\n        _totalSupply -= amount;\n\n        emit Transfer(account, address(0), amount);\n    }\n\n    function _approve(\n        address owner,\n        address spender,\n        uint256 amount\n    ) internal virtual {\n        require(owner != address(0), \"ERC20: approve from the zero address\");\n        require(spender != address(0), \"ERC20: approve to the zero address\");\n\n        _allowances[owner][spender] = amount;\n        emit Approval(owner, spender, amount);\n    }\n}",
  "sourcePath": "/Users/godambe/dhruv1584/finaxis/FinAxis-dao-Protocol/contracts/tokens/FinAxis.sol",
  "compiler": {
    "name": "solc",
    "version": "0.8.0+commit.c7dfd78e.Emscripten.clang"
  },
  "schemaVersion": "3.3.4",
  "updatedAt": "2021-07-04T06:25:57.907Z",
  "networkType": "ethereum",
  "devdoc": {
    "kind": "dev",
    "methods": {},
    "version": 1
  },
  "userdoc": {
    "kind": "user",
    "methods": {},
    "version": 1
  }
}